{
  "address": "0x21b873E8e7ceCb3925aF520800e0ad5Ed84ec423",
  "abi": [
    {
      "inputs": [],
      "stateMutability": "nonpayable",
      "type": "constructor"
    },
    {
      "anonymous": false,
      "inputs": [
        {
          "indexed": true,
          "internalType": "bytes32",
          "name": "id",
          "type": "bytes32"
        }
      ],
      "name": "ChainlinkCancelled",
      "type": "event"
    },
    {
      "anonymous": false,
      "inputs": [
        {
          "indexed": true,
          "internalType": "bytes32",
          "name": "id",
          "type": "bytes32"
        }
      ],
      "name": "ChainlinkFulfilled",
      "type": "event"
    },
    {
      "anonymous": false,
      "inputs": [
        {
          "indexed": true,
          "internalType": "bytes32",
          "name": "id",
          "type": "bytes32"
        }
      ],
      "name": "ChainlinkRequested",
      "type": "event"
    },
    {
      "anonymous": false,
      "inputs": [
        {
          "indexed": false,
          "internalType": "string",
          "name": "match_id",
          "type": "string"
        },
        {
          "indexed": false,
          "internalType": "string",
          "name": "uuid",
          "type": "string"
        },
        {
          "indexed": false,
          "internalType": "address",
          "name": "user_address",
          "type": "address"
        },
        {
          "indexed": false,
          "internalType": "int256",
          "name": "total_points",
          "type": "int256"
        },
        {
          "indexed": false,
          "internalType": "bytes32",
          "name": "squadHash",
          "type": "bytes32"
        }
      ],
      "name": "SquadRegistered",
      "type": "event"
    },
    {
      "anonymous": false,
      "inputs": [
        {
          "indexed": false,
          "internalType": "string",
          "name": "match_id",
          "type": "string"
        },
        {
          "indexed": false,
          "internalType": "uint256",
          "name": "amount",
          "type": "uint256"
        }
      ],
      "name": "rewardsClaimed",
      "type": "event"
    },
    {
      "anonymous": false,
      "inputs": [
        {
          "indexed": true,
          "internalType": "bytes32",
          "name": "requestId",
          "type": "bytes32"
        },
        {
          "indexed": false,
          "internalType": "int256",
          "name": "_total",
          "type": "int256"
        }
      ],
      "name": "test",
      "type": "event"
    },
    {
      "inputs": [
        {
          "internalType": "string",
          "name": "match_id",
          "type": "string"
        },
        {
          "internalType": "bytes32",
          "name": "squadHash",
          "type": "bytes32"
        },
        {
          "internalType": "bytes32[]",
          "name": "merklePath",
          "type": "bytes32[]"
        }
      ],
      "name": "claimRewards",
      "outputs": [],
      "stateMutability": "nonpayable",
      "type": "function"
    },
    {
      "inputs": [
        {
          "internalType": "bytes32",
          "name": "_requestId",
          "type": "bytes32"
        },
        {
          "internalType": "int256",
          "name": "_total_scores_players",
          "type": "int256"
        }
      ],
      "name": "fulfill",
      "outputs": [],
      "stateMutability": "nonpayable",
      "type": "function"
    },
    {
      "inputs": [
        {
          "internalType": "string",
          "name": "uuid",
          "type": "string"
        }
      ],
      "name": "getMatchUserSquad",
      "outputs": [
        {
          "components": [
            {
              "internalType": "address",
              "name": "user_address",
              "type": "address"
            },
            {
              "internalType": "int256",
              "name": "total_points",
              "type": "int256"
            },
            {
              "internalType": "bytes32",
              "name": "squadHash",
              "type": "bytes32"
            }
          ],
          "internalType": "struct Protocol.MatchUserSquad",
          "name": "",
          "type": "tuple"
        }
      ],
      "stateMutability": "view",
      "type": "function"
    },
    {
      "inputs": [
        {
          "internalType": "string",
          "name": "match_id",
          "type": "string"
        }
      ],
      "name": "isWinner",
      "outputs": [
        {
          "internalType": "bool",
          "name": "",
          "type": "bool"
        }
      ],
      "stateMutability": "view",
      "type": "function"
    },
    {
      "inputs": [
        {
          "internalType": "string",
          "name": "api",
          "type": "string"
        }
      ],
      "name": "submitOracle",
      "outputs": [],
      "stateMutability": "payable",
      "type": "function"
    },
    {
      "inputs": [
        {
          "internalType": "string",
          "name": "match_id",
          "type": "string"
        },
        {
          "internalType": "string",
          "name": "uuid",
          "type": "string"
        },
        {
          "internalType": "address",
          "name": "user_address",
          "type": "address"
        },
        {
          "internalType": "bytes32",
          "name": "squadHash",
          "type": "bytes32"
        }
      ],
      "name": "submitSquad",
      "outputs": [],
      "stateMutability": "payable",
      "type": "function"
    },
    {
      "inputs": [],
      "name": "total_scores_players",
      "outputs": [
        {
          "internalType": "int256",
          "name": "",
          "type": "int256"
        }
      ],
      "stateMutability": "view",
      "type": "function"
    }
  ],
  "transactionHash": "0x7e2c17c795bd7e5b6b892ef25d7ef211465498b80f89364256e4a4eea5f185c3",
  "args": [],
  "numDeployments": 1,
  "solcInputHash": "f2a713bdf6bc47a35bf56eb9c6665016",
  "bytecode": "0x60a0604052600160045534801561001557600080fd5b50600280546001600160a01b03191673779877a7b0d9e8603169ddbd7836e478b4624789179055736090149792daaee9d1d568c9f9a6f6b46aa29efd6080527f6663663431343064363936643434623638373031323233323934386264643564600655600a61008d670de0b6b3a7640000600161009f565b61009791906100ca565b6007556100ec565b80820281158282048414176100c457634e487b7160e01b600052601160045260246000fd5b92915050565b6000826100e757634e487b7160e01b600052601260045260246000fd5b500490565b6080516113fe610104600039600050506113fe6000f3fe6080604052600436106100705760003560e01c8063bda71d041161004e578063bda71d041461010b578063cc276db81461012b578063e343439f1461013e578063e4b113911461015157600080fd5b80632905e76414610075578063363453441461009e578063bd8664ce146100c0575b600080fd5b34801561008157600080fd5b5061008b60085481565b6040519081526020015b60405180910390f35b3480156100aa57600080fd5b506100be6100b9366004610ef9565b610181565b005b3480156100cc57600080fd5b506100e06100db366004610fcb565b61027b565b6040805182516001600160a01b03168152602080840151908201529181015190820152606001610095565b34801561011757600080fd5b506100be610126366004610fff565b6102e4565b6100be610139366004611021565b6103e6565b6100be61014c366004610fcb565b610583565b34801561015d57600080fd5b5061017161016c366004610fcb565b61064b565b6040519015158152602001610095565b336001600160a01b031660098460405161019b91906110ce565b908152604051908190036020019020600101546001600160a01b03161480156101e45750816009846040516101d091906110ce565b908152602001604051809103902060030154145b156102765760006009846040516101fb91906110ce565b908152604051908190036020018120600201549150339082156108fc029083906000818181858888f1935050505015801561023a573d6000803e3d6000fd5b507f4dc65c584c6b460af07b2b3783043771474eb7cc46a5a17cd6bf15a13b5fcde1848260405161026c929190611116565b60405180910390a1505b505050565b60408051606081018252600080825260208201819052818301529051600a906102a59084906110ce565b90815260408051918290036020908101832060608401835280546001600160a01b03168452600181015491840191909152600201549082015292915050565b60008281526005602052604090205482906001600160a01b031633146103625760405162461bcd60e51b815260206004820152602860248201527f536f75726365206d75737420626520746865206f7261636c65206f6620746865604482015267081c995c5d595cdd60c21b60648201526084015b60405180910390fd5b60008181526005602052604080822080546001600160a01b03191690555182917f7cc135e0cebb02c3480ae5d74d377283180a2601f8f644edf7987b009316c63a91a2827ff12dc8d5ba3d33932afe9cf50f4d8f0b4f7ae9af5ed3edaec31193a26f2665e7836040516103d791815260200190565b60405180910390a25060085550565b6040518060600160405280836001600160a01b03168152602001600854815260200182815250600a8460405161041c91906110ce565b9081526040805160209281900383018120845181546001600160a01b0319166001600160a01b039091161781559284015160018401559201516002909101556008549060099061046d9087906110ce565b9081526040519081900360200190205412156105135760085460098560405161049691906110ce565b9081526040519081900360200181209190915582906009906104b99087906110ce565b908152602001604051809103902060010160006101000a8154816001600160a01b0302191690836001600160a01b03160217905550806009856040516104ff91906110ce565b908152604051908190036020019020600301555b3460098560405161052491906110ce565b90815260200160405180910390206002016000828254610544919061114e565b90915550506008546040517f5e174a6bd8dcf69d8f189514193c1fd74741f58d7b60c94d40545885168798a89161026c91879187918791908790611161565b60006105996006543063bda71d0460e01b61068a565b60408051808201909152600381526219d95d60ea1b60208201529091506105c2908290846106af565b610616604051806040016040528060048152602001630e0c2e8d60e31b8152506040518060400160405280600b81526020016a746f74616c5f73636f726560a81b815250836106af9092919063ffffffff16565b60408051808201909152600581526474696d657360d81b602082015261063f90829060016106cd565b610276816007546106eb565b6000336001600160a01b031660098360405161066791906110ce565b908152604051908190036020019020600101546001600160a01b03161492915050565b610692610e09565b61069a610e09565b6106a68186868661070e565b95945050505050565b60808301516106be9083610754565b60808301516102769082610754565b60808301516106dc9083610754565b6080830151610276908261076b565b600354600090610705906001600160a01b031684846107ce565b90505b92915050565b610716610e09565b6107268560800151610100610861565b50508284526001600160a01b03821660208501526001600160e01b031981166040850152835b949350505050565b61076182600383516108c6565b61027682826109d3565b67ffffffffffffffff1981121561078a5761078682826109fa565b5050565b6001600160401b038113156107a3576107868282610a3c565b600081126107b757610786826000836108c6565b6107868260016107c9846000196111ad565b6108c6565b6004546000906107df81600161114e565b600455835160408086015160808701515191516000936320214ca360e11b936108179386938493923092918a916001916024016111d4565b60408051601f198184030181529190526020810180516001600160e01b03166001600160e01b031990931692909217909152905061085786838684610a5f565b9695505050505050565b60408051808201909152606081526000602082015261088160208361123c565b156108a95761089160208361123c565b61089c90602061125e565b6108a6908361114e565b91505b506020828101829052604080518085526000815290920101905290565b6017816001600160401b0316116108f0576108ea8360e0600585901b168317610bbd565b50505050565b60ff816001600160401b03161161092c57610916836018611fe0600586901b1617610bbd565b506108ea836001600160401b0383166001610be2565b61ffff816001600160401b03161161096957610953836019611fe0600586901b1617610bbd565b506108ea836001600160401b0383166002610be2565b63ffffffff816001600160401b0316116109a85761099283601a611fe0600586901b1617610bbd565b506108ea836001600160401b0383166004610be2565b6109bd83601b611fe0600586901b1617610bbd565b506108ea836001600160401b0383166008610be2565b60408051808201909152606081526000602082015261070583846000015151848551610c08565b610a058260c3610bbd565b5061078682610a16836000196111ad565b604051602001610a2891815260200190565b604051602081830303815290604052610cf2565b610a478260c2610bbd565b506107868282604051602001610a2891815260200190565b6040516bffffffffffffffffffffffff193060601b1660208201526034810184905260009060540160408051808303601f1901815282825280516020918201206000818152600590925291812080546001600160a01b0319166001600160a01b038a1617905590925082917fb5e6e01e79f91267dc17b4e6314d5d4d03593d2ceee0fbb452b750bd70ea5af99190a2600254604051630200057560e51b81526001600160a01b0390911690634000aea090610b2290889087908790600401611271565b6020604051808303816000875af1158015610b41573d6000803e3d6000fd5b505050506040513d601f19601f82011682018060405250810190610b659190611298565b61074c5760405162461bcd60e51b815260206004820152602360248201527f756e61626c6520746f207472616e73666572416e6443616c6c20746f206f7261604482015262636c6560e81b6064820152608401610359565b6040805180820190915260608152600060208201526107058384600001515184610cff565b60408051808201909152606081526000602082015261074c848560000151518585610d5a565b6040805180820190915260608152600060208201528251821115610c2b57600080fd5b6020850151610c3a838661114e565b1115610c6d57610c6d85610c5d87602001518786610c58919061114e565b610ddb565b610c689060026112c1565b610df2565b600080865180518760208301019350808887011115610c8c5787860182525b505050602084015b60208410610ccc5780518252610cab60208361114e565b9150610cb860208261114e565b9050610cc560208561125e565b9350610c94565b51815160001960208690036101000a019081169019919091161790525083949350505050565b61076182600283516108c6565b60408051808201909152606081526000602082015283602001518310610d3457610d348485602001516002610c6891906112c1565b8351805160208583010184815350808503610d50576001810182525b5093949350505050565b6040805180820190915260608152600060208201526020850151610d7e858461114e565b1115610d9257610d9285610c5d868561114e565b60006001610da2846101006113bc565b610dac919061125e565b9050855183868201018583198251161781525080518487011115610dd05783860181525b509495945050505050565b600081831115610dec575081610708565b50919050565b8151610dfe8383610861565b506108ea83826109d3565b6040805160a0810182526000808252602080830182905282840182905260608084018390528451808601909552845283015290608082015290565b634e487b7160e01b600052604160045260246000fd5b604051601f8201601f191681016001600160401b0381118282101715610e8257610e82610e44565b604052919050565b600082601f830112610e9b57600080fd5b81356001600160401b03811115610eb457610eb4610e44565b610ec7601f8201601f1916602001610e5a565b818152846020838601011115610edc57600080fd5b816020850160208301376000918101602001919091529392505050565b600080600060608486031215610f0e57600080fd5b83356001600160401b0380821115610f2557600080fd5b610f3187838801610e8a565b945060209150818601359350604086013581811115610f4f57600080fd5b8601601f81018813610f6057600080fd5b803582811115610f7257610f72610e44565b8060051b9250610f83848401610e5a565b818152928201840192848101908a851115610f9d57600080fd5b928501925b84841015610fbb57833582529285019290850190610fa2565b8096505050505050509250925092565b600060208284031215610fdd57600080fd5b81356001600160401b03811115610ff357600080fd5b61074c84828501610e8a565b6000806040838503121561101257600080fd5b50508035926020909101359150565b6000806000806080858703121561103757600080fd5b84356001600160401b038082111561104e57600080fd5b61105a88838901610e8a565b9550602087013591508082111561107057600080fd5b5061107d87828801610e8a565b93505060408501356001600160a01b038116811461109a57600080fd5b9396929550929360600135925050565b60005b838110156110c55781810151838201526020016110ad565b50506000910152565b600082516110e08184602087016110aa565b9190910192915050565b600081518084526111028160208601602086016110aa565b601f01601f19169290920160200192915050565b60408152600061112960408301856110ea565b90508260208301529392505050565b634e487b7160e01b600052601160045260246000fd5b8082018082111561070857610708611138565b60a08152600061117460a08301886110ea565b828103602084015261118681886110ea565b6001600160a01b039690961660408401525050606081019290925260809091015292915050565b81810360008312801583831316838312821617156111cd576111cd611138565b5092915050565b6001600160a01b0389811682526020820189905260408201889052861660608201526001600160e01b03198516608082015260a0810184905260c0810183905261010060e0820181905260009061122d838201856110ea565b9b9a5050505050505050505050565b60008261125957634e487b7160e01b600052601260045260246000fd5b500690565b8181038181111561070857610708611138565b60018060a01b03841681528260208201526060604082015260006106a660608301846110ea565b6000602082840312156112aa57600080fd5b815180151581146112ba57600080fd5b9392505050565b808202811582820484141761070857610708611138565b600181815b808511156113135781600019048211156112f9576112f9611138565b8085161561130657918102915b93841c93908002906112dd565b509250929050565b60008261132a57506001610708565b8161133757506000610708565b816001811461134d576002811461135757611373565b6001915050610708565b60ff84111561136857611368611138565b50506001821b610708565b5060208310610133831016604e8410600b8410161715611396575081810a610708565b6113a083836112d8565b80600019048211156113b4576113b4611138565b029392505050565b6000610705838361131b56fea264697066735822122014603e43a04326fd117649706f5624ac4c0fc4c88261dcb1eefabf380eb5c9d164736f6c63430008110033",
  "devdoc": {
    "kind": "dev",
    "methods": {},
    "version": 1
  },
  "userdoc": {
    "kind": "user",
    "methods": {},
    "version": 1
  },
  "storageLayout": {
    "storage": [
      {
        "astId": 325,
        "contract": "contracts/Protocol.sol:Protocol",
        "label": "s_ens",
        "offset": 0,
        "slot": "0",
        "type": "t_contract(ENSInterface)982"
      },
      {
        "astId": 327,
        "contract": "contracts/Protocol.sol:Protocol",
        "label": "s_ensNode",
        "offset": 0,
        "slot": "1",
        "type": "t_bytes32"
      },
      {
        "astId": 330,
        "contract": "contracts/Protocol.sol:Protocol",
        "label": "s_link",
        "offset": 0,
        "slot": "2",
        "type": "t_contract(LinkTokenInterface)1182"
      },
      {
        "astId": 333,
        "contract": "contracts/Protocol.sol:Protocol",
        "label": "s_oracle",
        "offset": 0,
        "slot": "3",
        "type": "t_contract(OperatorInterface)1047"
      },
      {
        "astId": 336,
        "contract": "contracts/Protocol.sol:Protocol",
        "label": "s_requestCount",
        "offset": 0,
        "slot": "4",
        "type": "t_uint256"
      },
      {
        "astId": 340,
        "contract": "contracts/Protocol.sol:Protocol",
        "label": "s_pendingRequests",
        "offset": 0,
        "slot": "5",
        "type": "t_mapping(t_bytes32,t_address)"
      },
      {
        "astId": 2172,
        "contract": "contracts/Protocol.sol:Protocol",
        "label": "jobId",
        "offset": 0,
        "slot": "6",
        "type": "t_bytes32"
      },
      {
        "astId": 2174,
        "contract": "contracts/Protocol.sol:Protocol",
        "label": "fee",
        "offset": 0,
        "slot": "7",
        "type": "t_uint256"
      },
      {
        "astId": 2176,
        "contract": "contracts/Protocol.sol:Protocol",
        "label": "total_scores_players",
        "offset": 0,
        "slot": "8",
        "type": "t_int256"
      },
      {
        "astId": 2224,
        "contract": "contracts/Protocol.sol:Protocol",
        "label": "matchWinnerData",
        "offset": 0,
        "slot": "9",
        "type": "t_mapping(t_string_memory_ptr,t_struct(WinnerData)2219_storage)"
      },
      {
        "astId": 2229,
        "contract": "contracts/Protocol.sol:Protocol",
        "label": "matchUserData",
        "offset": 0,
        "slot": "10",
        "type": "t_mapping(t_string_memory_ptr,t_struct(MatchUserSquad)2210_storage)"
      }
    ],
    "types": {
      "t_address": {
        "encoding": "inplace",
        "label": "address",
        "numberOfBytes": "20"
      },
      "t_bytes32": {
        "encoding": "inplace",
        "label": "bytes32",
        "numberOfBytes": "32"
      },
      "t_contract(ENSInterface)982": {
        "encoding": "inplace",
        "label": "contract ENSInterface",
        "numberOfBytes": "20"
      },
      "t_contract(LinkTokenInterface)1182": {
        "encoding": "inplace",
        "label": "contract LinkTokenInterface",
        "numberOfBytes": "20"
      },
      "t_contract(OperatorInterface)1047": {
        "encoding": "inplace",
        "label": "contract OperatorInterface",
        "numberOfBytes": "20"
      },
      "t_int256": {
        "encoding": "inplace",
        "label": "int256",
        "numberOfBytes": "32"
      },
      "t_mapping(t_bytes32,t_address)": {
        "encoding": "mapping",
        "key": "t_bytes32",
        "label": "mapping(bytes32 => address)",
        "numberOfBytes": "32",
        "value": "t_address"
      },
      "t_mapping(t_string_memory_ptr,t_struct(MatchUserSquad)2210_storage)": {
        "encoding": "mapping",
        "key": "t_string_memory_ptr",
        "label": "mapping(string => struct Protocol.MatchUserSquad)",
        "numberOfBytes": "32",
        "value": "t_struct(MatchUserSquad)2210_storage"
      },
      "t_mapping(t_string_memory_ptr,t_struct(WinnerData)2219_storage)": {
        "encoding": "mapping",
        "key": "t_string_memory_ptr",
        "label": "mapping(string => struct Protocol.WinnerData)",
        "numberOfBytes": "32",
        "value": "t_struct(WinnerData)2219_storage"
      },
      "t_string_memory_ptr": {
        "encoding": "bytes",
        "label": "string",
        "numberOfBytes": "32"
      },
      "t_struct(MatchUserSquad)2210_storage": {
        "encoding": "inplace",
        "label": "struct Protocol.MatchUserSquad",
        "members": [
          {
            "astId": 2205,
            "contract": "contracts/Protocol.sol:Protocol",
            "label": "user_address",
            "offset": 0,
            "slot": "0",
            "type": "t_address"
          },
          {
            "astId": 2207,
            "contract": "contracts/Protocol.sol:Protocol",
            "label": "total_points",
            "offset": 0,
            "slot": "1",
            "type": "t_int256"
          },
          {
            "astId": 2209,
            "contract": "contracts/Protocol.sol:Protocol",
            "label": "squadHash",
            "offset": 0,
            "slot": "2",
            "type": "t_bytes32"
          }
        ],
        "numberOfBytes": "96"
      },
      "t_struct(WinnerData)2219_storage": {
        "encoding": "inplace",
        "label": "struct Protocol.WinnerData",
        "members": [
          {
            "astId": 2212,
            "contract": "contracts/Protocol.sol:Protocol",
            "label": "matchWinnerPoints",
            "offset": 0,
            "slot": "0",
            "type": "t_int256"
          },
          {
            "astId": 2214,
            "contract": "contracts/Protocol.sol:Protocol",
            "label": "matchWinner",
            "offset": 0,
            "slot": "1",
            "type": "t_address"
          },
          {
            "astId": 2216,
            "contract": "contracts/Protocol.sol:Protocol",
            "label": "matchPrizePool",
            "offset": 0,
            "slot": "2",
            "type": "t_uint256"
          },
          {
            "astId": 2218,
            "contract": "contracts/Protocol.sol:Protocol",
            "label": "squadHash",
            "offset": 0,
            "slot": "3",
            "type": "t_bytes32"
          }
        ],
        "numberOfBytes": "128"
      },
      "t_uint256": {
        "encoding": "inplace",
        "label": "uint256",
        "numberOfBytes": "32"
      }
    }
  }
}