{
  "address": "0x1C45E0baf023BF08d77d6931fBcbe34248192562",
  "abi": [
    {
      "inputs": [],
      "stateMutability": "nonpayable",
      "type": "constructor"
    },
    {
      "anonymous": false,
      "inputs": [
        {
          "indexed": true,
          "internalType": "bytes32",
          "name": "id",
          "type": "bytes32"
        }
      ],
      "name": "ChainlinkCancelled",
      "type": "event"
    },
    {
      "anonymous": false,
      "inputs": [
        {
          "indexed": true,
          "internalType": "bytes32",
          "name": "id",
          "type": "bytes32"
        }
      ],
      "name": "ChainlinkFulfilled",
      "type": "event"
    },
    {
      "anonymous": false,
      "inputs": [
        {
          "indexed": true,
          "internalType": "bytes32",
          "name": "id",
          "type": "bytes32"
        }
      ],
      "name": "ChainlinkRequested",
      "type": "event"
    },
    {
      "anonymous": false,
      "inputs": [
        {
          "indexed": false,
          "internalType": "string",
          "name": "match_id",
          "type": "string"
        },
        {
          "indexed": false,
          "internalType": "string",
          "name": "uuid",
          "type": "string"
        },
        {
          "indexed": false,
          "internalType": "address",
          "name": "user_address",
          "type": "address"
        },
        {
          "indexed": false,
          "internalType": "int256",
          "name": "total_points",
          "type": "int256"
        },
        {
          "indexed": false,
          "internalType": "bytes32",
          "name": "squadHash",
          "type": "bytes32"
        }
      ],
      "name": "SquadRegistered",
      "type": "event"
    },
    {
      "anonymous": false,
      "inputs": [
        {
          "indexed": false,
          "internalType": "string",
          "name": "match_id",
          "type": "string"
        },
        {
          "indexed": false,
          "internalType": "uint256",
          "name": "amount",
          "type": "uint256"
        }
      ],
      "name": "rewardsClaimed",
      "type": "event"
    },
    {
      "anonymous": false,
      "inputs": [
        {
          "indexed": true,
          "internalType": "bytes32",
          "name": "requestId",
          "type": "bytes32"
        },
        {
          "indexed": false,
          "internalType": "int256",
          "name": "_total",
          "type": "int256"
        }
      ],
      "name": "test",
      "type": "event"
    },
    {
      "inputs": [
        {
          "internalType": "string",
          "name": "match_id",
          "type": "string"
        },
        {
          "internalType": "bytes32",
          "name": "squadHash",
          "type": "bytes32"
        },
        {
          "internalType": "bytes32[]",
          "name": "merklePath",
          "type": "bytes32[]"
        }
      ],
      "name": "claimRewards",
      "outputs": [],
      "stateMutability": "nonpayable",
      "type": "function"
    },
    {
      "inputs": [
        {
          "internalType": "bytes32",
          "name": "_requestId",
          "type": "bytes32"
        },
        {
          "internalType": "int256",
          "name": "_total_scores_players",
          "type": "int256"
        }
      ],
      "name": "fulfill",
      "outputs": [],
      "stateMutability": "nonpayable",
      "type": "function"
    },
    {
      "inputs": [
        {
          "internalType": "string",
          "name": "uuid",
          "type": "string"
        }
      ],
      "name": "getMatchUserSquad",
      "outputs": [
        {
          "components": [
            {
              "internalType": "address",
              "name": "user_address",
              "type": "address"
            },
            {
              "internalType": "int256",
              "name": "total_points",
              "type": "int256"
            },
            {
              "internalType": "bytes32",
              "name": "squadHash",
              "type": "bytes32"
            }
          ],
          "internalType": "struct Protocol.MatchUserSquad",
          "name": "",
          "type": "tuple"
        }
      ],
      "stateMutability": "view",
      "type": "function"
    },
    {
      "inputs": [
        {
          "internalType": "string",
          "name": "match_id",
          "type": "string"
        }
      ],
      "name": "isWinner",
      "outputs": [
        {
          "internalType": "bool",
          "name": "",
          "type": "bool"
        }
      ],
      "stateMutability": "view",
      "type": "function"
    },
    {
      "inputs": [
        {
          "internalType": "string",
          "name": "api",
          "type": "string"
        }
      ],
      "name": "submitOracle",
      "outputs": [],
      "stateMutability": "nonpayable",
      "type": "function"
    },
    {
      "inputs": [
        {
          "internalType": "string",
          "name": "match_id",
          "type": "string"
        },
        {
          "internalType": "string",
          "name": "uuid",
          "type": "string"
        },
        {
          "internalType": "address",
          "name": "user_address",
          "type": "address"
        },
        {
          "internalType": "bytes32",
          "name": "squadHash",
          "type": "bytes32"
        }
      ],
      "name": "submitSquad",
      "outputs": [],
      "stateMutability": "payable",
      "type": "function"
    },
    {
      "inputs": [],
      "name": "total_scores_players",
      "outputs": [
        {
          "internalType": "int256",
          "name": "",
          "type": "int256"
        }
      ],
      "stateMutability": "view",
      "type": "function"
    }
  ],
  "transactionHash": "0xe9c42edd744a57493cc069f068abd238355ae34b1955646ee206c58224010065",
  "args": [],
  "numDeployments": 3,
  "solcInputHash": "f679855dcfc4edce055524086e118ff1",
  "bytecode": "0x60a0604052600160045534801561001557600080fd5b50600380546001600160a01b031916736090149792daaee9d1d568c9f9a6f6b46aa29efd179055600280546001600160a01b03191673779877a7b0d9e8603169ddbd7836e478b4624789179055736090149792daaee9d1d568c9f9a6f6b46aa29efd6080527f6663663431343064363936643434623638373031323233323934386264643564600655600a6100b3670de0b6b3a764000060016100c5565b6100bd91906100f0565b600755610112565b80820281158282048414176100ea57634e487b7160e01b600052601160045260246000fd5b92915050565b60008261010d57634e487b7160e01b600052601260045260246000fd5b500490565b60805161140b61012a6000396000505061140b6000f3fe6080604052600436106100705760003560e01c8063bda71d041161004e578063bda71d041461010b578063cc276db81461012b578063e343439f1461013e578063e4b113911461015e57600080fd5b80632905e76414610075578063363453441461009e578063bd8664ce146100c0575b600080fd5b34801561008157600080fd5b5061008b60085481565b6040519081526020015b60405180910390f35b3480156100aa57600080fd5b506100be6100b9366004610f06565b61018e565b005b3480156100cc57600080fd5b506100e06100db366004610fd8565b610288565b6040805182516001600160a01b03168152602080840151908201529181015190820152606001610095565b34801561011757600080fd5b506100be61012636600461100c565b6102f1565b6100be61013936600461102e565b6103f3565b34801561014a57600080fd5b506100be610159366004610fd8565b610590565b34801561016a57600080fd5b5061017e610179366004610fd8565b610658565b6040519015158152602001610095565b336001600160a01b03166009846040516101a891906110db565b908152604051908190036020019020600101546001600160a01b03161480156101f15750816009846040516101dd91906110db565b908152602001604051809103902060030154145b1561028357600060098460405161020891906110db565b908152604051908190036020018120600201549150339082156108fc029083906000818181858888f19350505050158015610247573d6000803e3d6000fd5b507f4dc65c584c6b460af07b2b3783043771474eb7cc46a5a17cd6bf15a13b5fcde18482604051610279929190611123565b60405180910390a1505b505050565b60408051606081018252600080825260208201819052818301529051600a906102b29084906110db565b90815260408051918290036020908101832060608401835280546001600160a01b03168452600181015491840191909152600201549082015292915050565b60008281526005602052604090205482906001600160a01b0316331461036f5760405162461bcd60e51b815260206004820152602860248201527f536f75726365206d75737420626520746865206f7261636c65206f6620746865604482015267081c995c5d595cdd60c21b60648201526084015b60405180910390fd5b60008181526005602052604080822080546001600160a01b03191690555182917f7cc135e0cebb02c3480ae5d74d377283180a2601f8f644edf7987b009316c63a91a2827ff12dc8d5ba3d33932afe9cf50f4d8f0b4f7ae9af5ed3edaec31193a26f2665e7836040516103e491815260200190565b60405180910390a25060085550565b6040518060600160405280836001600160a01b03168152602001600854815260200182815250600a8460405161042991906110db565b9081526040805160209281900383018120845181546001600160a01b0319166001600160a01b039091161781559284015160018401559201516002909101556008549060099061047a9087906110db565b908152604051908190036020019020541215610520576008546009856040516104a391906110db565b9081526040519081900360200181209190915582906009906104c69087906110db565b908152602001604051809103902060010160006101000a8154816001600160a01b0302191690836001600160a01b031602179055508060098560405161050c91906110db565b908152604051908190036020019020600301555b3460098560405161053191906110db565b90815260200160405180910390206002016000828254610551919061115b565b90915550506008546040517f5e174a6bd8dcf69d8f189514193c1fd74741f58d7b60c94d40545885168798a8916102799187918791879190879061116e565b60006105a66006543063bda71d0460e01b610697565b60408051808201909152600381526219d95d60ea1b60208201529091506105cf908290846106bc565b610623604051806040016040528060048152602001630e0c2e8d60e31b8152506040518060400160405280600b81526020016a746f74616c5f73636f726560a81b815250836106bc9092919063ffffffff16565b60408051808201909152600581526474696d657360d81b602082015261064c90829060016106da565b610283816007546106f8565b6000336001600160a01b031660098360405161067491906110db565b908152604051908190036020019020600101546001600160a01b03161492915050565b61069f610e16565b6106a7610e16565b6106b38186868661071b565b95945050505050565b60808301516106cb9083610761565b60808301516102839082610761565b60808301516106e99083610761565b60808301516102839082610778565b600354600090610712906001600160a01b031684846107db565b90505b92915050565b610723610e16565b610733856080015161010061086e565b50508284526001600160a01b03821660208501526001600160e01b031981166040850152835b949350505050565b61076e82600383516108d3565b61028382826109e0565b67ffffffffffffffff19811215610797576107938282610a07565b5050565b6001600160401b038113156107b0576107938282610a49565b600081126107c457610793826000836108d3565b6107938260016107d6846000196111ba565b6108d3565b6004546000906107ec81600161115b565b600455835160408086015160808701515191516000936320214ca360e11b936108249386938493923092918a916001916024016111e1565b60408051601f198184030181529190526020810180516001600160e01b03166001600160e01b031990931692909217909152905061086486838684610a6c565b9695505050505050565b60408051808201909152606081526000602082015261088e602083611249565b156108b65761089e602083611249565b6108a990602061126b565b6108b3908361115b565b91505b506020828101829052604080518085526000815290920101905290565b6017816001600160401b0316116108fd576108f78360e0600585901b168317610bca565b50505050565b60ff816001600160401b03161161093957610923836018611fe0600586901b1617610bca565b506108f7836001600160401b0383166001610bef565b61ffff816001600160401b03161161097657610960836019611fe0600586901b1617610bca565b506108f7836001600160401b0383166002610bef565b63ffffffff816001600160401b0316116109b55761099f83601a611fe0600586901b1617610bca565b506108f7836001600160401b0383166004610bef565b6109ca83601b611fe0600586901b1617610bca565b506108f7836001600160401b0383166008610bef565b60408051808201909152606081526000602082015261071283846000015151848551610c15565b610a128260c3610bca565b5061079382610a23836000196111ba565b604051602001610a3591815260200190565b604051602081830303815290604052610cff565b610a548260c2610bca565b506107938282604051602001610a3591815260200190565b6040516bffffffffffffffffffffffff193060601b1660208201526034810184905260009060540160408051808303601f1901815282825280516020918201206000818152600590925291812080546001600160a01b0319166001600160a01b038a1617905590925082917fb5e6e01e79f91267dc17b4e6314d5d4d03593d2ceee0fbb452b750bd70ea5af99190a2600254604051630200057560e51b81526001600160a01b0390911690634000aea090610b2f9088908790879060040161127e565b6020604051808303816000875af1158015610b4e573d6000803e3d6000fd5b505050506040513d601f19601f82011682018060405250810190610b7291906112a5565b6107595760405162461bcd60e51b815260206004820152602360248201527f756e61626c6520746f207472616e73666572416e6443616c6c20746f206f7261604482015262636c6560e81b6064820152608401610366565b6040805180820190915260608152600060208201526107128384600001515184610d0c565b604080518082019091526060815260006020820152610759848560000151518585610d67565b6040805180820190915260608152600060208201528251821115610c3857600080fd5b6020850151610c47838661115b565b1115610c7a57610c7a85610c6a87602001518786610c65919061115b565b610de8565b610c759060026112ce565b610dff565b600080865180518760208301019350808887011115610c995787860182525b505050602084015b60208410610cd95780518252610cb860208361115b565b9150610cc560208261115b565b9050610cd260208561126b565b9350610ca1565b51815160001960208690036101000a019081169019919091161790525083949350505050565b61076e82600283516108d3565b60408051808201909152606081526000602082015283602001518310610d4157610d418485602001516002610c7591906112ce565b8351805160208583010184815350808503610d5d576001810182525b5093949350505050565b6040805180820190915260608152600060208201526020850151610d8b858461115b565b1115610d9f57610d9f85610c6a868561115b565b60006001610daf846101006113c9565b610db9919061126b565b9050855183868201018583198251161781525080518487011115610ddd5783860181525b509495945050505050565b600081831115610df9575081610715565b50919050565b8151610e0b838361086e565b506108f783826109e0565b6040805160a0810182526000808252602080830182905282840182905260608084018390528451808601909552845283015290608082015290565b634e487b7160e01b600052604160045260246000fd5b604051601f8201601f191681016001600160401b0381118282101715610e8f57610e8f610e51565b604052919050565b600082601f830112610ea857600080fd5b81356001600160401b03811115610ec157610ec1610e51565b610ed4601f8201601f1916602001610e67565b818152846020838601011115610ee957600080fd5b816020850160208301376000918101602001919091529392505050565b600080600060608486031215610f1b57600080fd5b83356001600160401b0380821115610f3257600080fd5b610f3e87838801610e97565b945060209150818601359350604086013581811115610f5c57600080fd5b8601601f81018813610f6d57600080fd5b803582811115610f7f57610f7f610e51565b8060051b9250610f90848401610e67565b818152928201840192848101908a851115610faa57600080fd5b928501925b84841015610fc857833582529285019290850190610faf565b8096505050505050509250925092565b600060208284031215610fea57600080fd5b81356001600160401b0381111561100057600080fd5b61075984828501610e97565b6000806040838503121561101f57600080fd5b50508035926020909101359150565b6000806000806080858703121561104457600080fd5b84356001600160401b038082111561105b57600080fd5b61106788838901610e97565b9550602087013591508082111561107d57600080fd5b5061108a87828801610e97565b93505060408501356001600160a01b03811681146110a757600080fd5b9396929550929360600135925050565b60005b838110156110d25781810151838201526020016110ba565b50506000910152565b600082516110ed8184602087016110b7565b9190910192915050565b6000815180845261110f8160208601602086016110b7565b601f01601f19169290920160200192915050565b60408152600061113660408301856110f7565b90508260208301529392505050565b634e487b7160e01b600052601160045260246000fd5b8082018082111561071557610715611145565b60a08152600061118160a08301886110f7565b828103602084015261119381886110f7565b6001600160a01b039690961660408401525050606081019290925260809091015292915050565b81810360008312801583831316838312821617156111da576111da611145565b5092915050565b6001600160a01b0389811682526020820189905260408201889052861660608201526001600160e01b03198516608082015260a0810184905260c0810183905261010060e0820181905260009061123a838201856110f7565b9b9a5050505050505050505050565b60008261126657634e487b7160e01b600052601260045260246000fd5b500690565b8181038181111561071557610715611145565b60018060a01b03841681528260208201526060604082015260006106b360608301846110f7565b6000602082840312156112b757600080fd5b815180151581146112c757600080fd5b9392505050565b808202811582820484141761071557610715611145565b600181815b8085111561132057816000190482111561130657611306611145565b8085161561131357918102915b93841c93908002906112ea565b509250929050565b60008261133757506001610715565b8161134457506000610715565b816001811461135a576002811461136457611380565b6001915050610715565b60ff84111561137557611375611145565b50506001821b610715565b5060208310610133831016604e8410600b84101617156113a3575081810a610715565b6113ad83836112e5565b80600019048211156113c1576113c1611145565b029392505050565b6000610712838361132856fea26469706673582212209ca62bd35d75941694a2b8eb94506c3cced5be5cf1877b42652b0dfeb09109de64736f6c63430008110033",
  "devdoc": {
    "kind": "dev",
    "methods": {},
    "version": 1
  },
  "userdoc": {
    "kind": "user",
    "methods": {},
    "version": 1
  },
  "storageLayout": {
    "storage": [
      {
        "astId": 325,
        "contract": "contracts/Protocol.sol:Protocol",
        "label": "s_ens",
        "offset": 0,
        "slot": "0",
        "type": "t_contract(ENSInterface)982"
      },
      {
        "astId": 327,
        "contract": "contracts/Protocol.sol:Protocol",
        "label": "s_ensNode",
        "offset": 0,
        "slot": "1",
        "type": "t_bytes32"
      },
      {
        "astId": 330,
        "contract": "contracts/Protocol.sol:Protocol",
        "label": "s_link",
        "offset": 0,
        "slot": "2",
        "type": "t_contract(LinkTokenInterface)1182"
      },
      {
        "astId": 333,
        "contract": "contracts/Protocol.sol:Protocol",
        "label": "s_oracle",
        "offset": 0,
        "slot": "3",
        "type": "t_contract(OperatorInterface)1047"
      },
      {
        "astId": 336,
        "contract": "contracts/Protocol.sol:Protocol",
        "label": "s_requestCount",
        "offset": 0,
        "slot": "4",
        "type": "t_uint256"
      },
      {
        "astId": 340,
        "contract": "contracts/Protocol.sol:Protocol",
        "label": "s_pendingRequests",
        "offset": 0,
        "slot": "5",
        "type": "t_mapping(t_bytes32,t_address)"
      },
      {
        "astId": 2172,
        "contract": "contracts/Protocol.sol:Protocol",
        "label": "jobId",
        "offset": 0,
        "slot": "6",
        "type": "t_bytes32"
      },
      {
        "astId": 2174,
        "contract": "contracts/Protocol.sol:Protocol",
        "label": "fee",
        "offset": 0,
        "slot": "7",
        "type": "t_uint256"
      },
      {
        "astId": 2176,
        "contract": "contracts/Protocol.sol:Protocol",
        "label": "total_scores_players",
        "offset": 0,
        "slot": "8",
        "type": "t_int256"
      },
      {
        "astId": 2228,
        "contract": "contracts/Protocol.sol:Protocol",
        "label": "matchWinnerData",
        "offset": 0,
        "slot": "9",
        "type": "t_mapping(t_string_memory_ptr,t_struct(WinnerData)2223_storage)"
      },
      {
        "astId": 2233,
        "contract": "contracts/Protocol.sol:Protocol",
        "label": "matchUserData",
        "offset": 0,
        "slot": "10",
        "type": "t_mapping(t_string_memory_ptr,t_struct(MatchUserSquad)2214_storage)"
      }
    ],
    "types": {
      "t_address": {
        "encoding": "inplace",
        "label": "address",
        "numberOfBytes": "20"
      },
      "t_bytes32": {
        "encoding": "inplace",
        "label": "bytes32",
        "numberOfBytes": "32"
      },
      "t_contract(ENSInterface)982": {
        "encoding": "inplace",
        "label": "contract ENSInterface",
        "numberOfBytes": "20"
      },
      "t_contract(LinkTokenInterface)1182": {
        "encoding": "inplace",
        "label": "contract LinkTokenInterface",
        "numberOfBytes": "20"
      },
      "t_contract(OperatorInterface)1047": {
        "encoding": "inplace",
        "label": "contract OperatorInterface",
        "numberOfBytes": "20"
      },
      "t_int256": {
        "encoding": "inplace",
        "label": "int256",
        "numberOfBytes": "32"
      },
      "t_mapping(t_bytes32,t_address)": {
        "encoding": "mapping",
        "key": "t_bytes32",
        "label": "mapping(bytes32 => address)",
        "numberOfBytes": "32",
        "value": "t_address"
      },
      "t_mapping(t_string_memory_ptr,t_struct(MatchUserSquad)2214_storage)": {
        "encoding": "mapping",
        "key": "t_string_memory_ptr",
        "label": "mapping(string => struct Protocol.MatchUserSquad)",
        "numberOfBytes": "32",
        "value": "t_struct(MatchUserSquad)2214_storage"
      },
      "t_mapping(t_string_memory_ptr,t_struct(WinnerData)2223_storage)": {
        "encoding": "mapping",
        "key": "t_string_memory_ptr",
        "label": "mapping(string => struct Protocol.WinnerData)",
        "numberOfBytes": "32",
        "value": "t_struct(WinnerData)2223_storage"
      },
      "t_string_memory_ptr": {
        "encoding": "bytes",
        "label": "string",
        "numberOfBytes": "32"
      },
      "t_struct(MatchUserSquad)2214_storage": {
        "encoding": "inplace",
        "label": "struct Protocol.MatchUserSquad",
        "members": [
          {
            "astId": 2209,
            "contract": "contracts/Protocol.sol:Protocol",
            "label": "user_address",
            "offset": 0,
            "slot": "0",
            "type": "t_address"
          },
          {
            "astId": 2211,
            "contract": "contracts/Protocol.sol:Protocol",
            "label": "total_points",
            "offset": 0,
            "slot": "1",
            "type": "t_int256"
          },
          {
            "astId": 2213,
            "contract": "contracts/Protocol.sol:Protocol",
            "label": "squadHash",
            "offset": 0,
            "slot": "2",
            "type": "t_bytes32"
          }
        ],
        "numberOfBytes": "96"
      },
      "t_struct(WinnerData)2223_storage": {
        "encoding": "inplace",
        "label": "struct Protocol.WinnerData",
        "members": [
          {
            "astId": 2216,
            "contract": "contracts/Protocol.sol:Protocol",
            "label": "matchWinnerPoints",
            "offset": 0,
            "slot": "0",
            "type": "t_int256"
          },
          {
            "astId": 2218,
            "contract": "contracts/Protocol.sol:Protocol",
            "label": "matchWinner",
            "offset": 0,
            "slot": "1",
            "type": "t_address"
          },
          {
            "astId": 2220,
            "contract": "contracts/Protocol.sol:Protocol",
            "label": "matchPrizePool",
            "offset": 0,
            "slot": "2",
            "type": "t_uint256"
          },
          {
            "astId": 2222,
            "contract": "contracts/Protocol.sol:Protocol",
            "label": "squadHash",
            "offset": 0,
            "slot": "3",
            "type": "t_bytes32"
          }
        ],
        "numberOfBytes": "128"
      },
      "t_uint256": {
        "encoding": "inplace",
        "label": "uint256",
        "numberOfBytes": "32"
      }
    }
  }
}