{
  "address": "0x4aBfD8DA327FDb5CE08D7AAbD30709236B3988fA",
  "abi": [
    {
      "inputs": [],
      "stateMutability": "nonpayable",
      "type": "constructor"
    },
    {
      "anonymous": false,
      "inputs": [
        {
          "indexed": true,
          "internalType": "bytes32",
          "name": "id",
          "type": "bytes32"
        }
      ],
      "name": "ChainlinkCancelled",
      "type": "event"
    },
    {
      "anonymous": false,
      "inputs": [
        {
          "indexed": true,
          "internalType": "bytes32",
          "name": "id",
          "type": "bytes32"
        }
      ],
      "name": "ChainlinkFulfilled",
      "type": "event"
    },
    {
      "anonymous": false,
      "inputs": [
        {
          "indexed": true,
          "internalType": "bytes32",
          "name": "id",
          "type": "bytes32"
        }
      ],
      "name": "ChainlinkRequested",
      "type": "event"
    },
    {
      "anonymous": false,
      "inputs": [
        {
          "indexed": false,
          "internalType": "string",
          "name": "match_id",
          "type": "string"
        },
        {
          "indexed": false,
          "internalType": "string",
          "name": "uuid",
          "type": "string"
        },
        {
          "indexed": false,
          "internalType": "address",
          "name": "user_address",
          "type": "address"
        },
        {
          "indexed": false,
          "internalType": "int256",
          "name": "total_points",
          "type": "int256"
        },
        {
          "indexed": false,
          "internalType": "bytes32",
          "name": "squadHash",
          "type": "bytes32"
        }
      ],
      "name": "SquadRegistered",
      "type": "event"
    },
    {
      "anonymous": false,
      "inputs": [
        {
          "indexed": false,
          "internalType": "string",
          "name": "match_id",
          "type": "string"
        },
        {
          "indexed": false,
          "internalType": "uint256",
          "name": "amount",
          "type": "uint256"
        }
      ],
      "name": "rewardsClaimed",
      "type": "event"
    },
    {
      "anonymous": false,
      "inputs": [
        {
          "indexed": true,
          "internalType": "bytes32",
          "name": "requestId",
          "type": "bytes32"
        },
        {
          "indexed": false,
          "internalType": "int256",
          "name": "_total",
          "type": "int256"
        }
      ],
      "name": "test",
      "type": "event"
    },
    {
      "inputs": [
        {
          "internalType": "string",
          "name": "match_id",
          "type": "string"
        },
        {
          "internalType": "bytes32",
          "name": "squadHash",
          "type": "bytes32"
        }
      ],
      "name": "claimRewards",
      "outputs": [],
      "stateMutability": "nonpayable",
      "type": "function"
    },
    {
      "inputs": [
        {
          "internalType": "bytes32",
          "name": "_requestId",
          "type": "bytes32"
        },
        {
          "internalType": "int256",
          "name": "_total_scores_players",
          "type": "int256"
        }
      ],
      "name": "fulfill",
      "outputs": [],
      "stateMutability": "nonpayable",
      "type": "function"
    },
    {
      "inputs": [
        {
          "internalType": "string",
          "name": "uuid",
          "type": "string"
        }
      ],
      "name": "getMatchUserSquad",
      "outputs": [
        {
          "components": [
            {
              "internalType": "address",
              "name": "user_address",
              "type": "address"
            },
            {
              "internalType": "int256",
              "name": "total_points",
              "type": "int256"
            },
            {
              "internalType": "bytes32",
              "name": "squadHash",
              "type": "bytes32"
            }
          ],
          "internalType": "struct Protocol.MatchUserSquad",
          "name": "",
          "type": "tuple"
        }
      ],
      "stateMutability": "view",
      "type": "function"
    },
    {
      "inputs": [
        {
          "internalType": "string",
          "name": "match_id",
          "type": "string"
        }
      ],
      "name": "isWinner",
      "outputs": [
        {
          "internalType": "bool",
          "name": "",
          "type": "bool"
        }
      ],
      "stateMutability": "view",
      "type": "function"
    },
    {
      "inputs": [
        {
          "internalType": "string",
          "name": "",
          "type": "string"
        }
      ],
      "name": "matchWinnerData",
      "outputs": [
        {
          "internalType": "int256",
          "name": "matchWinnerPoints",
          "type": "int256"
        },
        {
          "internalType": "address",
          "name": "matchWinner",
          "type": "address"
        },
        {
          "internalType": "uint256",
          "name": "matchPrizePool",
          "type": "uint256"
        },
        {
          "internalType": "bytes32",
          "name": "squadHash",
          "type": "bytes32"
        }
      ],
      "stateMutability": "view",
      "type": "function"
    },
    {
      "inputs": [
        {
          "internalType": "string",
          "name": "api",
          "type": "string"
        }
      ],
      "name": "submitOracle",
      "outputs": [],
      "stateMutability": "nonpayable",
      "type": "function"
    },
    {
      "inputs": [
        {
          "internalType": "string",
          "name": "match_id",
          "type": "string"
        },
        {
          "internalType": "string",
          "name": "uuid",
          "type": "string"
        },
        {
          "internalType": "bytes32",
          "name": "squadHash",
          "type": "bytes32"
        }
      ],
      "name": "submitSquad",
      "outputs": [],
      "stateMutability": "payable",
      "type": "function"
    },
    {
      "inputs": [],
      "name": "total_scores_players",
      "outputs": [
        {
          "internalType": "int256",
          "name": "",
          "type": "int256"
        }
      ],
      "stateMutability": "view",
      "type": "function"
    }
  ],
  "transactionHash": "0xa17d323be5668850dee3e09535dda82fa1a2f54b4a9b0fd04cf83baa59b01d3c",
  "args": [],
  "numDeployments": 8,
  "solcInputHash": "be16c07d9d76915908ee815b4af895ad",
  "bytecode": "0x60a0604052600160045534801561001557600080fd5b50600380546001600160a01b031916736090149792daaee9d1d568c9f9a6f6b46aa29efd179055600280546001600160a01b03191673779877a7b0d9e8603169ddbd7836e478b4624789179055736090149792daaee9d1d568c9f9a6f6b46aa29efd6080527f6663663431343064363936643434623638373031323233323934386264643564600655600a6100b3670de0b6b3a764000060016100c5565b6100bd91906100f0565b600755610112565b80820281158282048414176100ea57634e487b7160e01b600052601160045260246000fd5b92915050565b60008261010d57634e487b7160e01b600052601260045260246000fd5b500490565b6080516113da61012a600039600050506113da6000f3fe60806040526004361061007b5760003560e01c8063bd8664ce1161004e578063bd8664ce1461015d578063bda71d04146101a8578063e343439f146101c8578063e4b11391146101e857600080fd5b8063102d4e1b14610080578063197e1f39146101045780632905e764146101265780636c06b1a31461014a575b600080fd5b34801561008c57600080fd5b506100d761009b366004610f80565b8051602081830181018051600982529282019190930120915280546001820154600283015460039093015491926001600160a01b039091169184565b604080519485526001600160a01b0390931660208501529183015260608201526080015b60405180910390f35b34801561011057600080fd5b5061012461011f366004610fb4565b610218565b005b34801561013257600080fd5b5061013c60085481565b6040519081526020016100fb565b610124610158366004610ff8565b610311565b34801561016957600080fd5b5061017d610178366004610f80565b6104a3565b6040805182516001600160a01b031681526020808401519082015291810151908201526060016100fb565b3480156101b457600080fd5b506101246101c3366004611064565b61050c565b3480156101d457600080fd5b506101246101e3366004610f80565b61060e565b3480156101f457600080fd5b50610208610203366004610f80565b6106db565b60405190151581526020016100fb565b336001600160a01b031660098360405161023291906110aa565b908152604051908190036020019020600101546001600160a01b031614801561027b57508060098360405161026791906110aa565b908152602001604051809103902060030154145b1561030d57600060098360405161029291906110aa565b908152604051908190036020018120600201549150339082156108fc029083906000818181858888f193505050501580156102d1573d6000803e3d6000fd5b507f4dc65c584c6b460af07b2b3783043771474eb7cc46a5a17cd6bf15a13b5fcde183826040516103039291906110f2565b60405180910390a1505b5050565b6040805160608101825233815260085460208201528082018390529051600a9061033c9085906110aa565b9081526040805160209281900383018120845181546001600160a01b0319166001600160a01b039091161781559284015160018401559201516002909101556008549060099061038d9086906110aa565b908152604051908190036020019020541215610433576008546009846040516103b691906110aa565b9081526040519081900360200181209190915533906009906103d99086906110aa565b908152602001604051809103902060010160006101000a8154816001600160a01b0302191690836001600160a01b031602179055508060098460405161041f91906110aa565b908152604051908190036020019020600301555b3460098460405161044491906110aa565b90815260200160405180910390206002016000828254610464919061112a565b90915550506008546040517f5e174a6bd8dcf69d8f189514193c1fd74741f58d7b60c94d40545885168798a8916103039186918691339190879061113d565b60408051606081018252600080825260208201819052818301529051600a906104cd9084906110aa565b90815260408051918290036020908101832060608401835280546001600160a01b03168452600181015491840191909152600201549082015292915050565b60008281526005602052604090205482906001600160a01b0316331461058a5760405162461bcd60e51b815260206004820152602860248201527f536f75726365206d75737420626520746865206f7261636c65206f6620746865604482015267081c995c5d595cdd60c21b60648201526084015b60405180910390fd5b60008181526005602052604080822080546001600160a01b03191690555182917f7cc135e0cebb02c3480ae5d74d377283180a2601f8f644edf7987b009316c63a91a2827ff12dc8d5ba3d33932afe9cf50f4d8f0b4f7ae9af5ed3edaec31193a26f2665e7836040516105ff91815260200190565b60405180910390a25060085550565b60006106246006543063bda71d0460e01b610728565b60408051808201909152600381526219d95d60ea1b602082015290915061064d9082908461074d565b6106a1604051806040016040528060048152602001630e0c2e8d60e31b8152506040518060400160405280600b81526020016a746f74616c5f73636f726560a81b8152508361074d9092919063ffffffff16565b60408051808201909152600581526474696d657360d81b60208201526106ca908290600161076b565b6106d681600754610789565b505050565b6000336001600160a01b03166009836040516106f791906110aa565b908152604051908190036020019020600101546001600160a01b03160361072057506001919050565b506000919050565b610730610ea3565b610738610ea3565b610744818686866107ac565b95945050505050565b608083015161075c90836107f2565b60808301516106d690826107f2565b608083015161077a90836107f2565b60808301516106d69082610809565b6003546000906107a3906001600160a01b03168484610868565b90505b92915050565b6107b4610ea3565b6107c485608001516101006108fb565b50508284526001600160a01b03821660208501526001600160e01b031981166040850152835b949350505050565b6107ff8260038351610960565b6106d68282610a6d565b67ffffffffffffffff198112156108245761030d8282610a94565b6001600160401b0381131561083d5761030d8282610ad6565b600081126108515761030d82600083610960565b61030d82600161086384600019611189565b610960565b60045460009061087981600161112a565b600455835160408086015160808701515191516000936320214ca360e11b936108b19386938493923092918a916001916024016111b0565b60408051601f198184030181529190526020810180516001600160e01b03166001600160e01b03199093169290921790915290506108f186838684610af9565b9695505050505050565b60408051808201909152606081526000602082015261091b602083611218565b156109435761092b602083611218565b61093690602061123a565b610940908361112a565b91505b506020828101829052604080518085526000815290920101905290565b6017816001600160401b03161161098a576109848360e0600585901b168317610c57565b50505050565b60ff816001600160401b0316116109c6576109b0836018611fe0600586901b1617610c57565b50610984836001600160401b0383166001610c7c565b61ffff816001600160401b031611610a03576109ed836019611fe0600586901b1617610c57565b50610984836001600160401b0383166002610c7c565b63ffffffff816001600160401b031611610a4257610a2c83601a611fe0600586901b1617610c57565b50610984836001600160401b0383166004610c7c565b610a5783601b611fe0600586901b1617610c57565b50610984836001600160401b0383166008610c7c565b6040805180820190915260608152600060208201526107a383846000015151848551610ca2565b610a9f8260c3610c57565b5061030d82610ab083600019611189565b604051602001610ac291815260200190565b604051602081830303815290604052610d8c565b610ae18260c2610c57565b5061030d8282604051602001610ac291815260200190565b6040516bffffffffffffffffffffffff193060601b1660208201526034810184905260009060540160408051808303601f1901815282825280516020918201206000818152600590925291812080546001600160a01b0319166001600160a01b038a1617905590925082917fb5e6e01e79f91267dc17b4e6314d5d4d03593d2ceee0fbb452b750bd70ea5af99190a2600254604051630200057560e51b81526001600160a01b0390911690634000aea090610bbc9088908790879060040161124d565b6020604051808303816000875af1158015610bdb573d6000803e3d6000fd5b505050506040513d601f19601f82011682018060405250810190610bff9190611274565b6107ea5760405162461bcd60e51b815260206004820152602360248201527f756e61626c6520746f207472616e73666572416e6443616c6c20746f206f7261604482015262636c6560e81b6064820152608401610581565b6040805180820190915260608152600060208201526107a38384600001515184610d99565b6040805180820190915260608152600060208201526107ea848560000151518585610df4565b6040805180820190915260608152600060208201528251821115610cc557600080fd5b6020850151610cd4838661112a565b1115610d0757610d0785610cf787602001518786610cf2919061112a565b610e75565b610d0290600261129d565b610e8c565b600080865180518760208301019350808887011115610d265787860182525b505050602084015b60208410610d665780518252610d4560208361112a565b9150610d5260208261112a565b9050610d5f60208561123a565b9350610d2e565b51815160001960208690036101000a019081169019919091161790525083949350505050565b6107ff8260028351610960565b60408051808201909152606081526000602082015283602001518310610dce57610dce8485602001516002610d02919061129d565b8351805160208583010184815350808503610dea576001810182525b5093949350505050565b6040805180820190915260608152600060208201526020850151610e18858461112a565b1115610e2c57610e2c85610cf7868561112a565b60006001610e3c84610100611398565b610e46919061123a565b9050855183868201018583198251161781525080518487011115610e6a5783860181525b509495945050505050565b600081831115610e865750816107a6565b50919050565b8151610e9883836108fb565b506109848382610a6d565b6040805160a0810182526000808252602080830182905282840182905260608084018390528451808601909552845283015290608082015290565b634e487b7160e01b600052604160045260246000fd5b600082601f830112610f0557600080fd5b81356001600160401b0380821115610f1f57610f1f610ede565b604051601f8301601f19908116603f01168101908282118183101715610f4757610f47610ede565b81604052838152866020858801011115610f6057600080fd5b836020870160208301376000602085830101528094505050505092915050565b600060208284031215610f9257600080fd5b81356001600160401b03811115610fa857600080fd5b6107ea84828501610ef4565b60008060408385031215610fc757600080fd5b82356001600160401b03811115610fdd57600080fd5b610fe985828601610ef4565b95602094909401359450505050565b60008060006060848603121561100d57600080fd5b83356001600160401b038082111561102457600080fd5b61103087838801610ef4565b9450602086013591508082111561104657600080fd5b5061105386828701610ef4565b925050604084013590509250925092565b6000806040838503121561107757600080fd5b50508035926020909101359150565b60005b838110156110a1578181015183820152602001611089565b50506000910152565b600082516110bc818460208701611086565b9190910192915050565b600081518084526110de816020860160208601611086565b601f01601f19169290920160200192915050565b60408152600061110560408301856110c6565b90508260208301529392505050565b634e487b7160e01b600052601160045260246000fd5b808201808211156107a6576107a6611114565b60a08152600061115060a08301886110c6565b828103602084015261116281886110c6565b6001600160a01b039690961660408401525050606081019290925260809091015292915050565b81810360008312801583831316838312821617156111a9576111a9611114565b5092915050565b6001600160a01b0389811682526020820189905260408201889052861660608201526001600160e01b03198516608082015260a0810184905260c0810183905261010060e08201819052600090611209838201856110c6565b9b9a5050505050505050505050565b60008261123557634e487b7160e01b600052601260045260246000fd5b500690565b818103818111156107a6576107a6611114565b60018060a01b038416815282602082015260606040820152600061074460608301846110c6565b60006020828403121561128657600080fd5b8151801515811461129657600080fd5b9392505050565b80820281158282048414176107a6576107a6611114565b600181815b808511156112ef5781600019048211156112d5576112d5611114565b808516156112e257918102915b93841c93908002906112b9565b509250929050565b600082611306575060016107a6565b81611313575060006107a6565b816001811461132957600281146113335761134f565b60019150506107a6565b60ff84111561134457611344611114565b50506001821b6107a6565b5060208310610133831016604e8410600b8410161715611372575081810a6107a6565b61137c83836112b4565b806000190482111561139057611390611114565b029392505050565b60006107a383836112f756fea2646970667358221220b1276ae0aa5871dec80c6073a4b61d4d1f3bc62b04b8846acf8befcafc970d2464736f6c63430008110033",
  "devdoc": {
    "kind": "dev",
    "methods": {},
    "version": 1
  },
  "userdoc": {
    "kind": "user",
    "methods": {},
    "version": 1
  },
  "storageLayout": {
    "storage": [
      {
        "astId": 325,
        "contract": "contracts/Protocol.sol:Protocol",
        "label": "s_ens",
        "offset": 0,
        "slot": "0",
        "type": "t_contract(ENSInterface)982"
      },
      {
        "astId": 327,
        "contract": "contracts/Protocol.sol:Protocol",
        "label": "s_ensNode",
        "offset": 0,
        "slot": "1",
        "type": "t_bytes32"
      },
      {
        "astId": 330,
        "contract": "contracts/Protocol.sol:Protocol",
        "label": "s_link",
        "offset": 0,
        "slot": "2",
        "type": "t_contract(LinkTokenInterface)1182"
      },
      {
        "astId": 333,
        "contract": "contracts/Protocol.sol:Protocol",
        "label": "s_oracle",
        "offset": 0,
        "slot": "3",
        "type": "t_contract(OperatorInterface)1047"
      },
      {
        "astId": 336,
        "contract": "contracts/Protocol.sol:Protocol",
        "label": "s_requestCount",
        "offset": 0,
        "slot": "4",
        "type": "t_uint256"
      },
      {
        "astId": 340,
        "contract": "contracts/Protocol.sol:Protocol",
        "label": "s_pendingRequests",
        "offset": 0,
        "slot": "5",
        "type": "t_mapping(t_bytes32,t_address)"
      },
      {
        "astId": 2172,
        "contract": "contracts/Protocol.sol:Protocol",
        "label": "jobId",
        "offset": 0,
        "slot": "6",
        "type": "t_bytes32"
      },
      {
        "astId": 2174,
        "contract": "contracts/Protocol.sol:Protocol",
        "label": "fee",
        "offset": 0,
        "slot": "7",
        "type": "t_uint256"
      },
      {
        "astId": 2176,
        "contract": "contracts/Protocol.sol:Protocol",
        "label": "total_scores_players",
        "offset": 0,
        "slot": "8",
        "type": "t_int256"
      },
      {
        "astId": 2228,
        "contract": "contracts/Protocol.sol:Protocol",
        "label": "matchWinnerData",
        "offset": 0,
        "slot": "9",
        "type": "t_mapping(t_string_memory_ptr,t_struct(WinnerData)2223_storage)"
      },
      {
        "astId": 2233,
        "contract": "contracts/Protocol.sol:Protocol",
        "label": "matchUserData",
        "offset": 0,
        "slot": "10",
        "type": "t_mapping(t_string_memory_ptr,t_struct(MatchUserSquad)2214_storage)"
      }
    ],
    "types": {
      "t_address": {
        "encoding": "inplace",
        "label": "address",
        "numberOfBytes": "20"
      },
      "t_bytes32": {
        "encoding": "inplace",
        "label": "bytes32",
        "numberOfBytes": "32"
      },
      "t_contract(ENSInterface)982": {
        "encoding": "inplace",
        "label": "contract ENSInterface",
        "numberOfBytes": "20"
      },
      "t_contract(LinkTokenInterface)1182": {
        "encoding": "inplace",
        "label": "contract LinkTokenInterface",
        "numberOfBytes": "20"
      },
      "t_contract(OperatorInterface)1047": {
        "encoding": "inplace",
        "label": "contract OperatorInterface",
        "numberOfBytes": "20"
      },
      "t_int256": {
        "encoding": "inplace",
        "label": "int256",
        "numberOfBytes": "32"
      },
      "t_mapping(t_bytes32,t_address)": {
        "encoding": "mapping",
        "key": "t_bytes32",
        "label": "mapping(bytes32 => address)",
        "numberOfBytes": "32",
        "value": "t_address"
      },
      "t_mapping(t_string_memory_ptr,t_struct(MatchUserSquad)2214_storage)": {
        "encoding": "mapping",
        "key": "t_string_memory_ptr",
        "label": "mapping(string => struct Protocol.MatchUserSquad)",
        "numberOfBytes": "32",
        "value": "t_struct(MatchUserSquad)2214_storage"
      },
      "t_mapping(t_string_memory_ptr,t_struct(WinnerData)2223_storage)": {
        "encoding": "mapping",
        "key": "t_string_memory_ptr",
        "label": "mapping(string => struct Protocol.WinnerData)",
        "numberOfBytes": "32",
        "value": "t_struct(WinnerData)2223_storage"
      },
      "t_string_memory_ptr": {
        "encoding": "bytes",
        "label": "string",
        "numberOfBytes": "32"
      },
      "t_struct(MatchUserSquad)2214_storage": {
        "encoding": "inplace",
        "label": "struct Protocol.MatchUserSquad",
        "members": [
          {
            "astId": 2209,
            "contract": "contracts/Protocol.sol:Protocol",
            "label": "user_address",
            "offset": 0,
            "slot": "0",
            "type": "t_address"
          },
          {
            "astId": 2211,
            "contract": "contracts/Protocol.sol:Protocol",
            "label": "total_points",
            "offset": 0,
            "slot": "1",
            "type": "t_int256"
          },
          {
            "astId": 2213,
            "contract": "contracts/Protocol.sol:Protocol",
            "label": "squadHash",
            "offset": 0,
            "slot": "2",
            "type": "t_bytes32"
          }
        ],
        "numberOfBytes": "96"
      },
      "t_struct(WinnerData)2223_storage": {
        "encoding": "inplace",
        "label": "struct Protocol.WinnerData",
        "members": [
          {
            "astId": 2216,
            "contract": "contracts/Protocol.sol:Protocol",
            "label": "matchWinnerPoints",
            "offset": 0,
            "slot": "0",
            "type": "t_int256"
          },
          {
            "astId": 2218,
            "contract": "contracts/Protocol.sol:Protocol",
            "label": "matchWinner",
            "offset": 0,
            "slot": "1",
            "type": "t_address"
          },
          {
            "astId": 2220,
            "contract": "contracts/Protocol.sol:Protocol",
            "label": "matchPrizePool",
            "offset": 0,
            "slot": "2",
            "type": "t_uint256"
          },
          {
            "astId": 2222,
            "contract": "contracts/Protocol.sol:Protocol",
            "label": "squadHash",
            "offset": 0,
            "slot": "3",
            "type": "t_bytes32"
          }
        ],
        "numberOfBytes": "128"
      },
      "t_uint256": {
        "encoding": "inplace",
        "label": "uint256",
        "numberOfBytes": "32"
      }
    }
  }
}